:020000040000FA
:0600000002011A02226653
:03002B0002291493
:030033000228F6AA
:030053000222DCAA
:03006B000228CD9B
:100083000220C3E5C754F84401F5C77901220000F3
:100093000080FB120086B90003020104E479217891
:1000A30008B800028004F709D8FCE479297802B87B
:1000B30000028004F709D8FCE490028178AD79133B
:1000C3008002F0A3D8FCD9FA781A90014A7A01BACF
:1000D30000028007E493A3F608DAF97A2D7B1590E2
:1000E300014B780079038015E493A3AD82AE838A34
:1000F300828B83F0A3AA82AB838D828E83D8E9D9C6
:10010300E775825D7583C1740312012C7582917545
:100113008300740012012C75D00075813F7518811E
:10012300751902759F00020096C09FF59FE473D076
:100133009F22D083D082C09FE493C0E0740193C018
:10014300E0740293F59F2201FF0000B40000280031
:100153002800283075A000A000A000A0000008001F
:1001630008E001F000100010001000100010001053
:100173000050005000500010001000D00700000095
:100183000000000F0001000500307507001000019A
:100193000081FF00000000FFFFFF660684066C0677
:1001A300A806FF02020208025000A0000000E803B4
:1001B30002C390010000AE9002BD900100008815BB
:1001C30002B990010000BF0202BD90010000891531
:1001D30002B790010000D50202BD900100008A150C
:1001E30002BF90010000D70202BD900100008B15F1
:1001F30002C790080000D80202BD900100008C15D0
:1002030002CB900100008D15FF0100FF2002C39077
:10021300010000B49002BD90010000F11502CF90DF
:10022300000000000002BB90030000060317004417
:100233000D440D440D440D440D440D440D440D4433
:100243000D440D440D440D440D2C103E1026100298
:100253000202020202020202010D0000001001026A
:10026300C390010000AB9002BD9001000034160260
:10027300E390010000460702BD900100003516021D
:10028300E190010000698F02BD9001000036160263
:10029300DF900100004D8F02BD9001000037160270
:1002A300DB90010000A78E02BD900100003816020A
:1002B300D990010000DD8E02BD90010000391602C5
:1002C300D790010000CB8E02BD900100003A1602C8
:1002D300D590010000958E02BD900100003B1602EF
:1002E300D3900100005B8F02BD900100003C160219
:1002F300D1900100003D1601E8030577100AFFFFC6
:10030300FF00013075030201060000000000000039
:1003130000000000000000000000000000000000DA
:100323000000000000FFFF0600800CE803140953DF
:10033300696D706C65424C45506572697068657291
:10034300616C051250002003020A00020106030239
:10035300F0FF536D6172744D61696C426F7800CA2E
:10036300140000D0140A4368617261637465726992
:100373007374696320310002436861726163746559
:100383007269737469632032000843686172616340
:100393007465726973746963203300104368617212
:1003A300616374657269737469632034000243681E
:1003B30061726163746572697374696320350002E5
:1003C300C390010000B19002BD900100004A1702E2
:1003D300E990030000221502F1900100004B17027F
:1003E300BD900100005C1702EB9001000023150291
:1003F300F1900100005D1702BD900100006E17022D
:10040300ED90020000241502F1900100006F170225
:10041300BD90010000801702EF9000000025150237
:10042300BB90030000261502F19001000081170222
:10043300BD90010000921702DD9004000028150210
:10044300F190010000931712013575A003120135D5
:1004530088A003120135B7A003120135EFA00312E0
:10046300013538A1031201357BA103120135C1A166
:1004730003120135F4A1031201351BA20312013546
:100483004AA20312013581A2031201359AA2031273
:100493000135E9A20312013502A3031201354AA370
:1004A300031201357EA30312013590B902120135FF
:1004B3008EBA02120135F4BA0212013517BB0212C9
:1004C300013519BB0212013557BB02120135C8BBF6
:1004D3000212013588BC02120135AABC0212013591
:1004E30046BD021201357DBD02120135C2BD0212A5
:1004F3000135CFBD021201353FBE0212013589BE5F
:10050300021201358CBE02120135D2BE0212013530
:10051300D5BE02120135DFBE0212013552BF0212EF
:1005230001357ABF02120135ADBF02120135D1BFC9
:1005330002120135CEC00212013572C10212013519
:10054300DEC1021201351AC2021201357B91031278
:100553000135A39103120135D0910312013508929D
:10056300031201356E9203120135B892031201355D
:100573001C9303120135649303120135A1930312F3
:100583000135CF93031201356494031201356E9440
:10059300031201357B9403120135AE940312013526
:1005A300BA9403120135D29403120135DC94031279
:1005B300013594BE03120135A2BE03120135BABE42
:1005C30003120135D1BE03120135D4C8011201351E
:1005D30077C90112013590CA0112013508CB011206
:1005E30001352FCC0112013568CC0112013500CD44
:1005F30001120135EDCD0112013596CE01120135FF
:100603001ED00112013506D101120135FDD10112AF
:10061300013533D201120135D5D201120135FBD296
:1006230001120135C7D4011201350DD5011201356F
:100633002FD5011201359BD50112013566D6011262
:10064300013520D7011201352CD90112013501DA08
:1006530002120135DDDA0212013587DB02120135A0
:10066300C8DB021201354FDC02120135CADC02126B
:1006730001359DDD02120135C6DD02120135BADEF8
:1006830002120135F7DE02120135DFDF02120135F6
:1006930010E00212013536E0021201350CFE02129F
:1006A30001358BFE02120135B6FE02120135C6FF7B
:1006B300021201356A950312013580950312013543
:1006C3009E9503120135AE9603120135B8960312B7
:1006D3000135E29703120135CF98031201353B9997
:1006E30003120135A6E002120135D3E102120135EE
:1006F3000AE20212013561E20212013559E40212E3
:10070300013589A40112013510A50112013564A632
:100713000112013570A601120135E8A60112013557
:10072300C1A701120135C1A801120135BDA90112EA
:10073300013589AA01120135E3AB01120135F9AB89
:10074300011201351AAC01120135ACAC01120135AD
:1007530022AD0112013548AD01120135F5AF011289
:100763000135FAAF011201351EB20112013565B22E
:1007730001120135CBB20112013511B3011201355A
:10078300E1B30112013596B401120135F2B401123D
:100793000135F5B40112013541B5011201357DB5BD
:1007A30001120135BCB501120135DEB50112013567
:1007B30012B60112013580B60112013546E6021266
:1007C300013554E602120135A4E602120135C3E6EF
:1007D300021201350DE70212013550E8021201350C
:1007E300E8E8021201352CE90212013556E902123A
:1007F3000135C1E90212013505EA0212013588EA21
:100803000212013537EB021201354029001201357E
:10081300502900120135EA2900120135462A001237
:100823000135042B00120135272C00120135572CFA
:1008330000120135862C001201353C2E00120135C1
:100843008F3000120135EE3200120135D73300121A
:100853000135C734001201359A3600120135923939
:1008630000120135AF3A00120135A93C00120135DF
:10087300B83D00120135473F0012013533400012E5
:100883000135824000120135F240001201350E415C
:10089300001201355F4100120135FF450012013599
:1008A30006470012013568470012013593470012CD
:1008B30001354B48001201353B8D03120135458D3F
:1008C300031201358D8D03120135A18D03120135FC
:1008D300328E03120135698E03120135A48E031281
:1008E3000135CD8E03120135218F03120135368F69
:1008F30003120135588F031201356D8F0312013531
:10090300818F03120135968F03120135D08F0312A5
:100913000135FC8F03120135459003120135BB905D
:1009230003120135FE90031201352891031201359C
:10093300539103120135ABBA031201356FF501125E
:10094300013548F601120135B7F601120135F2F609
:10095300011201352DF801120135DFF801120135BD
:100963008CFB0112013537FC0112013518FD011210
:1009730001358EFE01120135F6FE0112013583F9B0
:1009830002120135C6F90212013531FB021201359B
:100993006FFD02120135ACAC0312013559AD0312E0
:1009A300013552AE031201358FAE031201357FB20A
:1009B30003120135DEB2031201357BB30312013595
:1009C300AEB303120135DCB30312013517B40312BE
:1009D300013537B403120135DAF40212013563F538
:1009E3000212013522F60212013530F702120135E7
:1009F30050F9021201350E9A02120135239A02129E
:100A03000135EE9A02120135BB9B02120135289C77
:100A130002120135639C02120135049D0212013555
:100A23000D9E02120135E59E02120135689F0212E6
:100A33000135F19F021201355AA002120135E4A0DB
:100A43000212013531A1021201359FA102120135B3
:100A530041A202120135EFA2021201350FA30212C5
:100A6300013553A3021201359BA302120135B7A32B
:100A730002120135D6A30212013550A40212013528
:100A83005EA402120135F1A4021201355BA5021224
:100A930001350080031201357C8003120135BA80D1
:100AA300031201359E81031201350D8203120135B4
:100AB300518203120135948203120135C18203125C
:100AC3000135DF8203120135178303120135548385
:100AD30003120135758303120135EB8303120135CC
:100AE3003584031201353AB701120135D7B8011223
:100AF300013502BB011201354ABB0112013575BB39
:100B03000112013561BC01120135A5BC0112013589
:100B130011BD0112013524BD0112013565BD01125C
:100B2300013592BD01120135DBBD011201351EBE37
:100B33000112013554BE01120135A5BE0112013562
:100B430009BF01120135E0C101120135D4C30112FD
:100B530001350FC4011201358FC501120135D3C50B
:100B63000112013543C60112013598C60112013540
:100B7300E4C60112013586C701120135BEC8011250
:100B83000135CFC8011201358A7600120135F3769B
:100B930000120135B67C00120135AB7D0012013520
:100BA300357F00120135CD7F00120135B4480012A4
:100BB3000135FC48001201352949001201355B4912
:100BC30000120135684900120135744900120135DC
:100BD3008649001201354D4A00120135AB4A001215
:100BE3000135E04A001201351C4C00120135694CF5
:100BF30000120135844C00120135F84C0012013506
:100C0300AF4D001201358F4E00120135F54E001223
:100C13000135C74F00120135E94F00120135595014
:100C230000120135F0500012013517510012013541
:100C33008F51001201351752001201354452001230
:100C43000135E95200120135695300120135085488
:100C530000120135805400120135D55400120135BC
:100C63001D5500120135525500120135F45500127D
:100C730001351857001201355857001201357557C1
:100C830000120135EB5D00120135345E00120135AF
:100C9300D05E00120135F55E001201350A5F0012C5
:100CA3000135715F00120135B85F00120135C8606C
:100CB30000120135746100120135CE610012013555
:100CC3002A620012013543620012013563B0021239
:100CD3000135AEB002120135BAB0021201358AB144
:100CE30002120135B3B102120135E6B10212013528
:100CF30052B20212013590B202120135C9B2021288
:100D03000135E1B2021201353AB30212013553B390
:100D13000212013598B302120135ABB30212013549
:100D2300C5B302120135DBB302120135E2B402127C
:100D3300013503B602120135ECB602120135DBB7F9
:100D430002120135F5FF021201350D8D0212013534
:100D5300408D02120135AA9002120135FF91021251
:100D63000135D292021201351494021201350C9509
:100D7300021201355A95021201357495021201359A
:100D8300B69502120135C195021201350A96021277
:100D93000135139602120135BF9602120135999758
:100DA30002120135E5970212013545980212013509
:100DB300979802120135C598021201350399021260
:100DC3000135F59001120135D69401120135DC94F9
:100DD300011201354C9B011201351FA0011201358F
:100DE30039A401120135459903120135BB99031248
:100DF3000135D199031201354E9A03120135859AB3
:100E030003120135BF9A03120135F99A0312013512
:100E13006C9B03120135A79B03120135B09B031290
:100E23000135BC9B03120135D59B03120135F99B98
:100E3300031201350E9C03120135379C0312013551
:100E4300999C03120135C09C031201351EF0021256
:100E5300013531F0021201354BF00212013578F001
:100E630002120135BEF002120135F1F00212013512
:100E73002EF10212013594F102120135A9F1021289
:100E83000135B4F102120135C1F102120135D8F175
:100E930002120135E6F102120135F1F102120135B8
:100EA300FDF10212013510F2021201351BF202129A
:100EB300013541F202120135E5F202120135F5F274
:100EC300021201350FF3021201352CF30212013520
:100ED30047F3021201356EF30212013579F3021260
:100EE30001358EF302120135A2F30212013503F428
:100EF3000212013509F4021201350FF40212013511
:100F030015F4021201352DF40212013560F40212B8
:100F130001350580021201359380021201352881C3
:100F230002120135048202120135388202120135A0
:100F33004B8202120135C582021201354D84021221
:100F43000135748402120135FB84021201353A859E
:100F5300021201354B8502120135C085021201359B
:100F6300DF8502120135F785021201353B87021234
:100F73000135458902120135778B021201357D8CCB
:100F830002120135C08C0212013539D90112013523
:100F93004CDA0112013534DB011201353EDB01125B
:100FA300013560DB011201356CDB01120135B9DC5F
:100FB30001120135E6DC0112013507DE01120135AC
:100FC30049DE011201357EDF011201354EE00112C7
:100FD30001359DE001120135FEE00112013533E1D7
:100FE300011201356CE10112013517E501120135DA
:100FF3002EE501120135ACE501120135BAE5011206
:10100300013503E60112013511E60112013592E6BD
:101013000112013501E7011201354DE701120135D6
:101023007EA502120135A0A5021201357CA702128A
:101033000135F4AA021201353EAC0212013520AD8E
:101043000212013545B4031201356AB403120135A6
:10105300DBB4031201357ED20212013587D20212AC
:10106300013590D202120135B4D302120135A5D550
:1010730002120135D3D502120135FED50212013514
:101083002CD60212013557D60212013595D602121B
:101093000135C1D602120135FED60212013529D718
:1010A3000212013575D702120135CCD70212013570
:1010B3000CD8021201355BD80212013586D8021210
:1010C3000135CCD802120135FAD80212013525D9DF
:1010D3000212013552D90212013575D902120135B6
:1010E30015C00312013541C0031201359AC0031222
:1010F3000135A4C003120135B4C0031201351CA786
:101103000312013543A7031201356EA703120135FC
:10111300B5C103120135756200120135CC640012AA
:1011230001357C6600120135D96600120135D96795
:1011330000120135566800120135DE6800120135D0
:10114300036900120135DE6B00120135526C001287
:101153000135416D00120135776D00120135BA6D0D
:10116300001201353B6F001201357D6F001201350E
:10117300C66F001201352F70001201355170001235
:1011830001356B70001201358971001201359971B7
:10119300001201351C73001201353C730012013536
:1011A300727300120135EE74001201352B750012B3
:1011B3000135657600120135DE88031201352E896B
:1011C30003120135688A03120135D78A03120135E8
:1011D3007B8B031201359A8B03120135E88B0312C3
:1011E30001352A8C0312013561BF0312013572BF29
:1011F30003120135FFC1031201353EC2031201354B
:101203004EC303120135B7BD03120135C7BD031227
:101213000135DCBD031201358EBE03120135BFBBA0
:101223000312013542BC03120135A8BC0312013578
:10123300F6B5031201351FB60312013585B6031245
:101243000135A4B603120135F7B60312013550B7C1
:10125300031201358BB7031201358EB70312013523
:10126300E6A303120135FBA303120135F9A403120C
:10127300013591A50312013505A6031201351FA6F9
:101283000312013536A60312013544A603120135B4
:101293005CA60312013571A60312013596A603124B
:1012A3000135E7A60312013538C30312013548C3DC
:1012B300031201354BC303120135F87F00120135C8
:1012C300A5B0031201351BB2031201357CB2031220
:1012D30001353AB9031201355DB90312013586B9F7
:1012E3000312013520BA0312013562BA0312013524
:1012F300B5CA02120135BFCA02120135FFCA021272
:10130300013548CB0212013580CB02120135D6CB11
:1013130002120135F3CB0212013572CE02120135EE
:101323007BCE02120135C0CE02120135E9CE021284
:101333000135FECE021201356ECF02120135FBCF0D
:10134300021201354FD00212013572D0021201355B
:10135300F1D0021201352CD10212013561D10212F2
:10136300013573D10212013592D1021201359BD19D
:101373000212013552D20212013598B70312013518
:10138300E9B70312013572B803120135DCB8031251
:101393000135F1A90312013519AA031201350EAB68
:1013A3000312013533AB03120135C2AB031201350E
:1013B300C1BC03120135A9AE03120135DFAE03121E
:1013C300013512AF031201356BB003120135BEC0F4
:1013D30003120135D4C003120135DEC003120135F7
:1013E30032C1031201359BFF0112013540C20212C3
:1013F3000135FAC20212013535C30212013566C343
:1014030002120135D6C3021201352CC40212013572
:1014130080C4021201356DC50212013566C602127F
:101423000135E7C7021201359BC80212013504C911
:101433000212013517C902120135FCC90212013526
:1014430055CA021201357C840312013592840312BA
:1014530001353385031201357285031201358F85FA
:1014630003120135C085031201350D8603120135C0
:101473004086031201357B860312013576880312F9
:101483000135D3E7011201355BEB01120135EAECBB
:101493000112013541ED0112013560ED01120135F3
:1014A300DEED0112013564EF0112013537F001124F
:1014B3000135F1F301120135D9F40112013549EB7C
:1014C3000212013564ED0212013525EE02120135D7
:1014D300BDEF02120135EF9C03120135529D031239
:1014E30001356F9D03120135359E03120135889E28
:1014F300031201356B9F0312013548C203120135F4
:10150300C5C2031201358EC203120135F1C20312A3
:1015130001351AC303E066701008A3E066700A0879
:10152300A3E066700408A3E06622C3E7960809E710
:10153300960809E7960809E79622C3E09608A3E010
:101543009608A3E09608A3E09622C008C3E096F5A8
:101553000808A3E096420808A3E096420808A3E01F
:101563009645087001D3D00822080808EAC0E0EBCA
:10157300C0E086F0E7A4FA180986F0E7A42AFA186F
:101583000986F0E7A42AFA180986F0E7A42AFA19CB
:1015930086F0E7A4FBE5F02AFA190886F0E7A42B06
:1015A300FBE5F03AFA190886F0E7A42BFBE5F03ADD
:1015B300FA18180986F0E7A4C5F02BFBE43AFA19E8
:1015C30008E7C5F0C6A426F6E5F03BFBE43AFA18B3
:1015D30086F0E7A4F6E5F00826F6E43B08F6E43ADD
:1015E30008F6D0E0FBD0E0FA22E4CFC0E0E4CEC0BE
:1015F300E0E4CDC0E0E4CCC0E075F020E626F608D8
:10160300E633F608E633F608E633F6181818EC3333
:10161300FCED33FDEE33FEEF33FFC3EC9709ED979B
:1016230009EE9709EF97191919400FFFEC97FC0979
:10163300ED97FD09EE97FE191906D5F0BFECF709F2
:10164300EDF709EEF709EFF7191919D0E0FCD0E02F
:10165300FDD0E0FED0E0FF226016080808C6C313E1
:10166300C618C613C618C613C618C613C6D5E0EAED
:10167300227009080808226016181818C6C333C652
:1016830008C633C608C633C608C633C6D5E0EA2241
:10169300E627F60809E637F60809E637F60809E605
:1016A30037F622E026F608A3E036F608A3E036F67E
:1016B30008A3E036F622E026F008A3E036F008A3FC
:1016C300E036F008A3E036F022C3E697F60809E611
:1016D30097F60809E697F60809E697F622C3E0C6E7
:1016E30096F608A3E0C696F608A3E0C696F608A306
:1016F300E0C696F622C3E096F008A3E096F008A3AE
:10170300E096F008A3E096F022E056F608A3E05630
:10171300F608A3E056F608A3E056F622E056F008D2
:10172300A3E056F008A3E056F008A3E056F022E049
:10173300F608A3E0F608A3E0F608A3E0F622E6F035
:1017430008A3E6F008A3E6F008A3E6F022E0FAA374
:10175300E0FBA3E0FCA3E0FD22E0FCA3E0FDA3E0AB
:10176300FEA3E0FF22ECF0A3EDF0A3EEF0A3EFF075
:1017730022E0F8A3E0F9A3E0FAA3E0FB22E8F0A358
:10178300E9F0A3EAF0A3EBF022CAC0E0E6F0A30875
:10179300DAFAD0E0FA22CAC0E0E0A3C582CCC5825F
:1017A300C583CDC583F0A3C582CCC582C583CDC512
:1017B30083DAE6D0E0CA22C3E498F8E499F9121771
:1017C300FB8026C3E49AFAE49BFBE920E7E91217BE
:1017D300FBE498F8E499F922C3E498F8E499F91240
:1017E30017FBE498F8E499F9C3E49AFAE49BFB2223
:1017F300EB20E7CFE920E7E0B90010BB0008E88A57
:10180300F084F8AAF022E4FBC8FA22EB70227B10E2
:10181300C833C8C933C9335007C39AC3DBF2800640
:101823009A50012ADBEAC833F4C8C933F4C9FA224F
:1018330075F008E4C833C8C933C933C99AC99B5082
:1018430004C92AC93BD5F0ECFBC833F4C8E4C9FA90
:1018530022600D08C6A2E713C618C613C6D5E0F367
:1018630022600C08C6C313C618C613C6D5E0F422FB
:10187300700422600D18C6C333C608C633C6D5E04C
:10188300F41822251810AF08F518400C1519800814
:10189300F51840021519D2AF2200C0D0251810AF99
:1018A30008F518500C05198008F51850020519D2CF
:1018B300AFD0D0222518F58210AF08F518400C15CB
:1018C300198008F51840021519D2AF85198322250E
:1018D30018F582E43519F583222518F8E43519F94A
:1018E300222518FAE43519FB222518FCE43519FDE5
:1018F30022E4732518C582C0E0E51934FFC583C00F
:10190300E0E518C3958224F810AF08858319858212
:10191300188008858319858218D2AFCEF0A3E520FD
:10192300F0A37808E608F0A3DEFAEFF0A3E581243C
:10193300FAF8E608F0A3E608F0A3E608F0A308081F
:10194300E608F0A3E608F0A315811581D0E0FED0E8
:10195300E0F8158115811581E8C0E0EEC0E022258D
:1019630018C582C0E0E51934FFC583C0E0E518C39C
:10197300958224F910AF088583198582188008851C
:101983008319858218D2AFCEF0A3E520F0A378089F
:10199300E608F0A3DEFAEFF0A3E58124FBF8E608FE
:1019A300F0A3E608F0A30808E608F0A3E608F0A30E
:1019B30015811581D0E0FED0E0F815811581E8C0CE
:1019C300E0EEC0E022851983851882E0A3FEE0A340
:1019D300F5207808E0A3F608DFFAE0A3FFE0A3C050
:1019E300E0E0A3C0E0E0A3C0E0E0A3C0E0E0A3C068
:1019F300E010AF08858218858319800885821885D1
:101A03008319D2AFD083D08202013285198385181E
:101A130082E0A3FEE0A3F5207808E0A3F608DFFA4E
:101A2300E0A3FFE0A3C0E0E0A3C0E0E0A3C0E0E0E8
:101A3300A3C0E010AF0885821885831980088582CA
:101A430018858319D2AFD083D08222C0D02518C580
:101A530082C0E0E51934FFC583C0E0E518C3958271
:101A630024F310AF088583198582188008858319AC
:101A7300858218D2AFC8F0A3E9F0A3EAF0A3EBF094
:101A8300A37908E709F0A3D8FAECF0A3EDF0A3EEED
:101A9300F0A3EFF0A3D0E0F0A3D0E0F0A3D0E0F008
:101AA300A3E520F0A3E5F0F0A3228519838518822E
:101AB300E0C0E0A3E0F9A3E0FAA3E0FBA37808E029
:101AC300F608A3DFFAE0FCA3E0FDA3E0FEA3E0FF3A
:101AD300A3E0C0E0A3E0C0E0A3E0F5D0A3E0F520DD
:101AE300A3E0A3F5F010AF08858319858218800859
:101AF300858319858218D2AFD082D083D0E0F8D005
:101B0300E03274048006740280027401C0E0F404BD
:101B13001218B7D0E012178C227404800474028068
:101B230000CCC0E0EDC0E0E518C39CCCAD1950017A
:101B33001D10AF068C188D1980068C188D19D2AF25
:101B4300121799D0E0FDD0E0FC22D083D082E9C007
:101B5300E0E493A3C386F0C5F095F0F908E493A3FA
:101B630086F0C5F095F0700BE493A3C3994005E9A3
:101B7300048002A3E475F002A42582F582E5F03522
:101B830083F583D0E0F9E493A3C0E0E493C0E022BB
:101B9300D083D082ECC0E0EDC0E0E493A3FCE493F7
:101BA300A3FDED4C600D121BDFEC24FFFCED34FFB5
:101BB300FD80EFE493A3FCE493A3FDED4C600D12D1
:101BC3001C1EEC24FFFCED34FFFD80EFD0E0FDD0C4
:101BD300E0FCE493A3C0E0E493C0E022C0E0C3E4EC
:101BE3009396087401939618400FE493667008085F
:101BF300740193661870007019A3A3C3E493960845
:101C03007401939618A3A3400DD0E0D0E0D0E00276
:101C13001BCFA3A3A3A3A3A3D0E022C0E0C0F0885B
:101C2300F0E4936670080874019366187000A8F0D6
:101C3300A3A3700BD0F0D0E0D0E0D0E0021BCFA381
:061C4300A3D0F0D0E02266
:101C4C0074F6121962EAFEEBFF8C088D09EA243453
:101C5C00F8E43FF9E8FCE9FD121D7AE0FAEE2437CE
:101C6C00F582E43FF583E0F88508F0A4C885F00A16
:101C7C008509F0A4250AF9EA28F8E439F97A257BD4
:101C8C00001217FBEA8C828D83F0F9131313541F87
:101C9C00FAEE2AFAE43FFBEA245DF582E43BF58395
:101CAC00E0C0E0740759F8D0E0B800028004C31318
:101CBC00D8FCA2E04021EE2436F582E43FF583E027
:101CCC00F5F0E984A8F0EE28F8E43FF9E82438F5BB
:101CDC0082E439F583E0F97F03021A0E74F51219C8
:101CEC0062EAFEEBFFEA2434F582E43FF583E0C0C0
:101CFC00E0121D7AD0E0F08A828B83A3A3A3A3A366
:101D0C00E0FAA3E0FB8E828F83A3A3A3A3A3A3A3D8
:101D1C00E0C39AF508A3E09BF509EE2480F8E43FB4
:101D2C00880AF50B8882F583E06401702CEE24811F
:101D3C00F582E43FF583EA2401F8E43BF9E06870AE
:101D4C0003A3E06970137CB67D04EEFAEFFB120C72
:101D5C0066850A82850B83E4F0AC08AD09EEFAEFD8
:101D6C00FB121C4CE9F91228BF7F04021A0EEA245C
:101D7C0035F582E43FF58322C082C08385188285C5
:101D8C001983E0F8A3E0F9C3EA9CEB9D5010C3EC77
:101D9C0098ED99401BC3EA98EB995014800EC3EA56
:101DAC0098EB994007C3EC98ED99400479018002B7
:101DBC007900D083D08222EAC39CFAEB9DFB22747B
:101DCC00ED121962900376E064086005E064077018
:101DDC002C9061C8E060269003A4E0F874FF686062
:101DEC001CE875F010A4C8AAF02AF974A628FE7491
:101DFC000339FF8E82F583A3A3A3E070057900025B
:101E0C001FA7EE2468F50EE43FF50F906060E085A7
:101E1C000E82850F83F075102775110575080075F6
:101E2C000900E5D914F50AE5D95403F50B6044EE25
:101E3C002484F50CE43FF50D7403650B6025E50A6D
:101E4C00600CEE2467F582E43FF583E06025900595
:101E5C0022E06401603E850C82850D83E060207871
:101E6C0004801E850C82850D83E0603BE50AC394DB
:101E7C00055034793DEEFAEFFB120C90021E0978F6
:101E8C0000E50AC398FA95E0FB120AF88A088B0958
:101E9C00EA4B7006120EF4021E09850C82850D8326
:101EAC00E070048A108B1178008014E5D9C0E0E84A
:101EBC00FAE5102AF582E43511F583D0E0F008E854
:101ECC00C3950A40E6850C82850D83E0602874FC7E
:101EDC00250AF50A7810121B09AC0AA90BEEFAEFC9
:101EEC00FB120D3E740212189CE9700AAA08AB0989
:101EFC00121380021E7F7403650B6055E50AF50C06
:101F0C00750D00780C121B09AC10AD11AA08AB09A9
:101F1C00120D02740212189C850E82850F83E0F854
:101F2C007480687005750C7F8002880CE50CF50DCB
:101F3C00780D121B0D780B121B0DA90AAC08AD09FC
:101F4C009003A4E0FA7B00120936740212189C80EC
:101F5C0045851082851183E0F8C3940E500F743FB1
:101F6C0028F582E4348FF583E0650A6016EE24F7D9
:101F7C00F582E43FF583E8F07907EEFAEFFB120CFB
:101F8C00548013900376E06408600BAC10AD11EE36
:101F9C00FAEFFB120DD4120F0079017F0C021A0E0E
:101FAC0074F112196274FC121886EAFEEBFF8909AF
:101FBC00750C00A2AFE433F508C2AF9004BEE0FA92
:101FCC009061D0E0F8748098F895E0F9C3EA98E451
:101FDC0099A2D265D0335015750C018010AA0AABAA
:101FEC000B120CBA1213809004BDE004F0EE2463C3
:101FFC00F50AE43FF50B850A82F583E0F8A3E0F9D6
:10200C00E849602DE82402FAE439FBEA2402F50ED3
:10201C00E43BF50F780E121B098A828B83E0FCA33C
:10202C00E0F9EEFAEFFB120CAE740212189CE960A8
:10203C00AC9061D0E0F87480C3989004BEF0E50CCD
:10204C0060539004BDE0604D9004BFE0F89004BD77
:10205C00E0C398500C74026509703A9004C0E060BB
:10206C00348E828F83A3A3A3A3E085188285198362
:10207C001220B174021218D2E81220B19004BCE004
:10208C0028F074021218ECAA18AB19790112098AFB
:10209C009004BDE4F0E508A2E092AF740412189C21
:1020AC007F08021A0EF0A3E4F09004BDE0F82200C1
:1020BC008521878522C622C0E074EB121A4EA2AF8E
:1020CC00E433F508C2AF759B00906182E0A2E0504A
:1020DC002DE591A2E050277591FE74016521701ECB
:1020EC0012223A122251121B1C12266E7404121860
:1020FC009CE9640170057901120E88121DCB906168
:10210C0082E0A2E5505AE591A2E550547591DF901A
:10211C000376E064076005E06408702C12223A74C0
:10212C00016521703B122251121B1C12266E740485
:10213C0012189CE9640170057901120E887901EE80
:10214C00FAEFFB121FAC8018E0640D70139003982B
:10215C00E004F064287002E4F07A00E0F9120F0653
:10216C00906182E0A2E6400302220FE591A2E640D4
:10217C000302220F7591BF900376E064057008127C
:10218C000E16120E228003120E1C752100120E94D4
:10219C00E9900377F07900120E88120BD07A017B4C
:1021AC0000900375E0F9121350907803E0644270CC
:1021BC0052900526E014F0704AC2AF1221CA007882
:1021CC002AD0E0F618D0E0F6E59F540770047BFFA8
:1021DC0080027B7FC4C0E07829E6F50A08E65BF54F
:1021EC000B740B780A121864D0E0250AF890627010
:1021FC00E0A2E740F8E8C333906272F0906270E0BE
:10220C00D2E0F0906181E0A2E35009E5E9A2E3504D
:10221C000375E9F7A3E0A2E75009E591A2E75003A3
:10222C0075917FE508A2E092AF7F08021AAD90038A
:10223C00A4E0F875F010A4C8AAF02AF974A628FE38
:10224C00740339FF22120E2E8E828F83E0F8A3E0E6
:10225C00C82416F582E438F58322C0E0C0D0C082D1
:10226C00C083906183E0A2E05009E5BFA2E0500377
:10227C0075BFFEE0A2E15009E5BFA2E1500375BFB6
:10228C00FDE0A2E25009E5BFA2E2500375BFFBE0FE
:10229C00A2E35009E5BFA2E3500375BFF7E0A2E447
:1022AC005009E5BFA2E4500375BFEFE0A2E5500969
:1022BC00E5BFA2E5500375BFDFE0A2E65009E5BF1C
:1022CC00A2E6500375BFBFD083D082D0D0D0E0320D
:1022DC00C0E074F2121A4EE5A7A2E4500FE5A1A2D9
:1022EC00E4500953A7EF75A1EF122330E5A7A2E53F
:1022FC00500CE5A1A2E5500653A7DF75A1DFE5A7B9
:10230C00A2E15009E5A1A2E1500375A1FDE5A7A248
:10231C00E2500CE5A1A2E2500653A7FB75A1FB7F8E
:10232C0001021AAD74F8121962752101900376E05E
:10233C00640670077A007B00120DFEA2AFE433FE38
:10234C00D2AF90037CE0640170187A207B0090037C
:10235C0075E0F912146A7A207B00900375E0F9128B
:10236C001356906182E0D2E6F0900523E06021855F
:10237C00C622801690037BE064017008E5C654F811
:10238C004405F5C653BEFC1220BC7401652160E403
:10239C00EEA2E092AF7F01021A0E00008E238F2472
:1023AC00858228858327851882851983E0CEA3E052
:1023BC00CF852882852783EBC9EAC8EDCBECCA759B
:1023CC00F010C3E833C8E933C9EA33CAEB33CBC3E3
:1023DC00EA9EF526EB9FF525B35004AB25AA26EC17
:1023EC0033CCED33CDD5F0DAAE23AF242274E91221
:1023FC00196274FA121886EAFEEBFF8C088D09122A
:10240C000E40EAF8EBF9ECFAEDFB8E828F83121793
:10241C0080900376E024F7C39405500675100102F2
:10242C00252F120D748A0A8B0BEA4B700302252C94
:10243C00120E348A0C8B0D120E34EA650C7003EB01
:10244C00650D60ECEEFCEFFDAA18AB19120E3A8587
:10245C000A82850B83A3A3780C12173290900F7805
:10246C000C12170C85188285198378141217329068
:10247C00900F781412170C780C791412152D501F1C
:10248C00780C79141216CC90902F780C12154D40B4
:10249C005D850C10850D11850E12850F13803790FC
:1024AC00902F851410851511851612851713781029
:1024BC00790C1216CC781012154D5032751000751F
:1024CC001100751200751301781079141216CC785E
:1024DC0010790C1216937409781012167490909F40
:1024EC00780C1217327810790C1215EC800C7510D0
:1024FC0014751100751200751300900376E06408D2
:10250C00600AE064066005E064057020909027780E
:10251C001012154D501690902378101216A6800CA0
:10252C0075100075110075120075130085088285F1
:10253C0009837810121741740612189C7F10021A26
:10254C000E74F7121962120E52900521E06401709C
:10255C0010906245E4F0A3F053F4F343FE0C539057
:10256C00F3120DECE5C654B84441F5C6E59E54474C
:10257C00644170F8906185740FF090051FE0F47061
:10258C0002A3E0602C75080175090090051FE07826
:10259C0008121873E508F4FAA3E0600814600A1432
:1025AC00600C800DEA52808008EA52908003EA5257
:1025BC00A079007F02021A0E74F7121962E9FEEA82
:1025CC00FF74016E700C7A807B00900375E0F91239
:1025DC001350902938E493F46008E493F9120BB289
:1025EC00800953C6B8E59E544770FA120DF2900557
:1025FC0021E064017003120BE890051FE0F47002F7
:10260C00A3E0602B75080175090090051FE07808A0
:10261C00121873E508FAA3E0600814600A14600C41
:10262C00800DEA42808008EA42908003EA42A012C0
:10263C000D748B09A909EA496016E5E170FCEA24DE
:10264C0014F582E439F583E0F874FF68600288E1E0
:10265C0074016F700A7A01900375E0F91213DA02B3
:10266C0025BF74F11219628A088B098C0A8D0B90A4
:10267C00900F780812170C740F1218D2780C1217CE
:10268C003290900F780C12170C7808790C12152DCB
:10269C0090902F50107808790C1216CC78081215DF
:1026AC004D4014800E780C79081216CC780C12154B
:1026BC004D50047901800279007F08021A0E74EDE6
:1026CC001219628A088B098C0A8D0B90900F78086E
:1026DC0012170C74131218D2780C12173290900F28
:1026EC00780C12170C780C790812152D40117808FB
:1026FC00790C1216CCAA08AB09AC0AAD0B8022756A
:10270C0010007511007512007513017810790C12F8
:10271C0016CC78107908121693AA10AB11AC12AD26
:10272C00137F0C021A0E90900F78081217328A82BF
:10273C008B83780812171F7F04021A0E74F5121976
:10274C00628C828D8378081217328A828B83780888
:10275C001216F812279CC3E098F0A3E09912278E6A
:10276C00401E90905778081217328A828B83780813
:10277C001216B98E828F83E02420F0A3E0344EF041
:10278C0080A4F08E828F83C3E09420A3E0944E2229
:10279C00EA2404F8E43BF9E8FEE9FF8C828D83A37C
:1027AC00A3A3A3E0F8A3E0F98E828F832274F51221
:1027BC0019629004D9E0FAA3E0FBE929F8E433F9B3
:1027CC00740028F582748F39F583E02AF508A3E0AC
:1027DC003BF5097808121B099090631217501223CD
:1027EC00A8740212189C8A088B098C0A8D0B741021
:1027FC00780812165BAA08AB097F04021A0E74F152
:10280C001219628A0C8B0D8C0E8D0F74111218D24A
:10281C00121B2074111218D2E02401F508A3E03425
:10282C0000F509E4F50AF50B780C790812156C9093
:10283C00901B7808121732780C790812156CAA0CB8
:10284C00AB0DAC0EAD0F1223A8740212189CEA4B00
:10285C0060047A0180027A00EC2AFCE43DFD7413DA
:10286C001218D2E0F8A3E0F9E8FEE9FFECF8EDF974
:10287C007A717B021217FB88088909E4F50AF50BBB
:10288C008E828F837808121741ECF8EDF97A717B00
:10289C00021217FB8A088B09740578081218738EBC
:1028AC00828F83A3A3A3A3E508F0A3E509F07F0817
:1028BC00021A0EC082C083E9906000F0D083D082EF
:1028CC0022C0E074F2121A4EA2AFE433FED2AFE58E
:1028DC0089A2E1500312124E758900C2C5751A0007
:1028EC00EEA2E092AF7F01021AADC0E074F2121AB0
:1028FC004EA2AFE433FED2AFE58BA2E0500312122E
:10290C004E758B00C2E880D5C0E0C0D0E8C0E0A80E
:10291C00A8D2AFC2C7751A00E8A2E792AFD0E0F810
:0B292C00D0D0D0E032C2AF0200002289
:10293800FFFFFFFFFFFFFFFFC082C083E99015F094
:10294800F0D083D08202013274F61218F6E99002B0
:10295800E8F0900348E0F508750900740278081259
:102968001873AA08AB091213C29002E9122E246048
:102978006E900348E075F003A4FAABF01213C2900E
:102988000306122E24700B9002E91236681213C83F
:10299800804D9003061245D17AFF7BFF1211B87A59
:1029A80000801EEAF5087509007402780812187389
:1029B80012406D74FFF0A31245E5A3A3E4F0A3F061
:1029C8000A900348E0F8EAC39840D879051208222B
:1029D8009002E8E0F912070E7AAC7B08120A980216
:1029E800410974F41218F68A088B09EB5480604781
:1029F8009002E8E0F91213388A0A8B0BAE0AAF0B83
:102A0800EA4F602A8A828B83E064B0701A12083415
:102A1800E960148E828F83A3A3A3A3E0F9EE2405B3
:102A2800FAE43FFB120804EEFAEFFB121326AA0899
:102A3800E5096480FB80047A007B00022C5274F262
:102A48001218F674FB121886EAFEEBFFEA4F604391
:102A580074031218D21232D1851882851983ECF0CA
:102A6800A3EDF074021218D2E9F0AA18AB191207F4
:102A780008E9F508707774131218D2E0F50AA3E094
:102A8800F50BE50A450B60658E828F83123065EE83
:102A98004F700575080280557A067B001213C28AAA
:102AA8000C8B0DA80CA90DEA497005750813803D1B
:102AB8008A828B83E4F0122AFCA3EEF0A3EF12487B
:102AC800AAE50AF0A3E50BF09002EC122C1690028E
:102AD800EC6017E0FCA3E08003EAFCEBFD8C828D40
:102AE80083122C1670F38C828D83123C8DA9087486
:102AF80005024843A3F08A828B83A32274F212183A
:102B0800F68908E9F50C750D007403780C12187332
:102B1800850C0A850D0B9002EBF09002E91245B680
:102B2800122C14602F1213C87900801EE9F50C7559
:102B38000D007402780C1218739002E9123F26886F
:102B480082F583A3A3E4F0A3F009900348E0F8E931
:102B5800C39840D8900348E0FA850AF0A4CAA8F0C0
:102B6800850BF0A428FB1213C28A0C8B0DAE0CAF98
:102B78000DEA4F7003022C0A900348E0FC850AF026
:102B8800A4CCA8F0850BF0A428FD790012130E7CC4
:102B9800008032EDF50C750D007403780C12187373
:102BA8008A828B83122C0F8882F583E4F0122C1C06
:102BB800A3A3F0A3F00DEDC3950840D7EE250AFEB8
:102BC800EF350BFF0C900348E0F8ECC3985029EC64
:102BD800F50C750D007402780C1218739002E91246
:102BE8002C0FE82402500109FAE9FB8A82F583EEEA
:102BF800F0A3EFF07D0080BEE5089002EBF07900CD
:102C080080027913024846123F2AF922A3A31232FE
:102C1800E9EA4B22A3F088828983A3A3A3A32274A1
:102C2800F41218F67900EAA2E0501F7508F2750947
:102C38008F7808121B0979107C047D007AF27B15C5
:102C480012081C740212189CE9F97F040219C8C002
:102C580082C0839002EC12402C601C88828983A376
:102C6800A3E06A7003A3E06B8882898370E8A3A35A
:102C7800A3A312366880047A007B0002294974F203
:102C88001218F674FD121886EAFEEBFF8518828585
:102C98001983E4F0A3F074021218D27401F09002C0
:102CA800EF12402C70111209D21213C29002EF12C7
:102CB8002E247003022E181233BEEE2404F50AE403
:102CC8003FF50B850A82F583E024FE603C24FC6016
:102CD8007424FE607E24FE7003022D6824FE7003B7
:102CE800022D7524FE7003022D8224FE7003022D2E
:102CF8008F24FE7003022D9C24FC7003022DBD243A
:102D0800FE7003022DD5022E111209D29002F1EAAB
:102D1800F0A3EB122E2D120456E96003022E119037
:102D280002F1121B208E828F83A3A3A3A3A31245B3
:102D3800D18508828509831236681207EC7402125D
:102D4800189C022E11AC18AD19EEFAEFFB12083AD6
:102D5800022DE0AC18AD19EEFAEFFB1208408078AE
:102D6800AC18AD19EEFAEFFB120846806BAC18AD43
:102D780019EEFAEFFB12084C805EAC18AD19EEFAAA
:102D8800EFFB1208528051AC18AD19EEFAEFFB12A6
:102D98000858804474021218DC880C890D780C12CB
:102DA8001B0974021218ECEEFAEFFB12085E7402AB
:102DB80012189C8023AC18AD19EEFAEFFB120864C8
:102DC800E9F8701674021218D2E4F0803CAC18AD21
:102DD80019EEFAEFFB12086AE9F8E8602C8E828F88
:102DE80083A3E064146022850A82850B83E0900245
:102DF800F1F08518828519831236689002F2123232
:102E0800D1E8A3122E2D120450EEFAEFFB1207C2DE
:102E180074021218D2E0F97403024843EAF0A3EBF3
:102E2800F0F9EA4922F07CF17D0285088285098360
:102E38001232E92274E81218F674FA121886740429
:102E48001218D2ECF0A3EDF08A128B13EA2405F5E0
:102E58000EE43513F50FEA2402F510E43513F511E5
:102E680085108212390F7508007C037D0079007A7D
:102E7800F17B0212130EE50E2402F516E4350FF568
:102E88001774021218DC880C890D780C121B09853E
:102E98000E82850F83A3A3A3A3E0F50C750D00781C
:102EA8000C121B09E50E2405F50CE4350FF50D7819
:102EB8000C121B0985168285178312395712189C24
:102EC8008A0C8B0DE50C450D70030230348020858B
:102ED8001882851983E088828983F005088518821D
:102EE800851983A3E0C0E012306FD0E0F00508E553
:102EF8000A24FBF8E50B34FFF9C3E50898E4994088
:102F0800030230347E007F00851282851383A3A3D9
:102F1800A3A3E0F5097809121B0DE4F514F515785B
:102F280014121B097514EE7515027814121B0990FA
:102F380002EF121B2074091218D2121B20E50A2472
:102F4800F9F9AC0CAD0D12396912189CE96003024D
:102F58002FDB850E82850F83A3A3A3A3A3A3A3E0DE
:102F6800F89002EEE068706BE0F5148E1578141294
:102F78001B091245CE850E82850F83A3A3A3A3A3A5
:102F8800A3A3A3123668121308740212189CE960EE
:102F9800421240297034E4F5147814121B097CFF9E
:102FA8007DFF790712397812189C8B15A9151230F4
:102FB800847017850E82850F8312475D740412187A
:102FC800D212401612398A023062850C82850D832E
:102FD800123065A818A919881489157814121B09C4
:102FE80074041218D2121B20851682851783123991
:102FF8003912189C8A0C8B0DEE4F7003022ECC12DE
:10300800306FEE12307A123920EF12307AF8A3E0DE
:103018003400F9E50C4B6003022ED788828983744B
:10302800FFF0050812306F74FFF00508E50860141A
:103038001313543F1232D7120462E96003123F3D62
:1030480079008016850E82850F8312475D740412FD
:1030580018D2124016123C8D790A0238F0A3A3A3A5
:10306800A3E0FEA3E0FF22A8089002F2E0281239AC
:103078002022F00508089002F2E028229002F2EAE5
:10308800F0A3EBF0EA492274E81218F674FA121861
:103098008674021218D21232D174041218D2ECF0CB
:1030A800A3EDF074021218D2E024051238FAF58361
:1030B800E0F50CA3E0F50D74021218D2E02402F535
:1030C80010A3E03400F51185108212366C750800E3
:1030D800750900EA24FCFEEB34FFFF8008050CE5C7
:1030E8000C7002050DA808C3EE98EF940050030277
:1030F8003282A818A919880E890F780E121B098523
:103108001482851583A3A3A3A31245AD121B09E559
:10311800142405F50EE43515F50F780E121B0985F4
:103128001482851583A3A31245D1AA0CAB0D1207EF
:1031380026740612189C8A0E8B0FEA4B7003023213
:1031480082EA2404F516E4350FF517851682F5830F
:10315800E0F50CA3E0F50D851882851983121B2074
:10316800AC0EAD0F85108285118312390612189C9A
:10317800E9F509600302328274021218D21239305A
:10318800F5097809121B0DE4F512F5137812121BD4
:10319800097512EE7513027812121B099002EF12CC
:1031A8001B2074071218D2121B20EEF9AC0EAD0FBB
:1031B80012396912189CE9F5096003023282E508A0
:1031C800703BE4F50EF50F780E121B097CFF7DFFAE
:1031D800790912397812189C8B0FA90F9002F312F3
:1031E8003087700D74041218D21232C47911023269
:1031F800B39002EEE024029002F2F080149002F202
:10320800E0FA9002EEE0790024025001096A497060
:103218006DA8089002EEE0FAE82AFAE43400FBEE22
:103228009AEF9B4055851682851783E0C0E090028F
:10323800F3123074D0E0F00508851682851783A351
:10324800E0C0E0089002F3123074D0E0F005089076
:1032580002EE1245AD121B091245CEA8081232B66D
:1032680012189C9002EEE02508F50874FF650C70B2
:103278000474FF650D60030230E5E508601C9002E8
:10328800F2E0F5F0E508841232D7120468E9600626
:103298009002F3123F4079008011E5097003750927
:1032A8000A74041218D21232C4A9090238F0900222
:1032B800F3E028FAA3E0340012458B221245BAE560
:1032C8000CF0A3E50DF022A3A3EAF0A3EBF0229003
:1032D80002F1F07CF17D028510828511831232E9BA
:1032E80022123C7DFB2274EC1218F674FC1218862C
:1032F800123D9D74021218EC850A82850B831234E4
:10330800BD70030233AE1233BEA818A919881089FC
:10331800117810121B097CFF7DFF790B85088285C7
:10332800098312397E12189C1233C8700B850A82E1
:10333800850B83123987807B8E828F83A3A3A3A3F7
:10334800E0F5127812121B0DE4F512F5137812123B
:103358001B097512F17513027812121B09781012E5
:103368001B0974091218D2121B2074091218D212E0
:1033780034B685088285098312396F12189CE9FED4
:1033880070157CF17D0285088285098312366812E2
:10339800046EE97009801A74166E70027E00123F7E
:1033A8003DEE7004800B7E01850A82850B83123CFA
:1033B8008AEEF9023C9FEE2402F508E43FF5092263
:1033C8008A108B119002F2EAF0A3EBF0EA4B227418
:1033D800EC1218F674FC121886EAFEEBFF8C0E8DC0
:1033E8000FEA2405F508E43FF50974021218EC8584
:1033F80008828509831234BD70030234A6EE2402C4
:10340800F50AE43FF50BA818A91988108911781056
:10341800121B097CFF7DFF790D850A82850B8312BB
:10342800397E12189C1233C8700B8508828509836F
:1034380012398780768E828F83A3A3A3A3E0F51227
:103448007812121B0D850882850983A3A3121B20FD
:103458007512F17513027812121B097810121B09E4
:1034680074091218D2121B2074091218D21234B619
:10347800850A82850B8312396F12189CE9FE700F3A
:103488007CF17D02123662120474E97009801A74A4
:10349800166E70027E00123F3DEE7004800B7E01B6
:1034A800850882850983123C8AEEF9023C9FE0F97F
:1034B800AC0CAD0D22123C758A0C8B0DEA4B2274B4
:1034C800E81218F674FE1218868A168B178C148D5B
:1034D80015EA2405F50CE43517F50DEA2402F50E76
:1034E800E43517F50F850E8212366C8A088B09753C
:1034F8000B007C037D0079007AF17B0212130E75B4
:103508000A00E50814F5100424FFF508E50934FF5E
:10351800F509804C9002F1E0FA9002EEE0F8EA2812
:10352800F8E43400F9E50898E50999500D9002F19E
:10353800E0F8E510C3989002EEF0E0F5127513007C
:103548007812121B091245CE9002F2E02A1232BB01
:1035580012189C9002EEE0F89002F1E028F0050ABB
:10356800850C82850D83A3A3123F3640030236479C
:103578009002F1E0C39508E495094003023647AE8E
:103588000AEE2EFEE433FF123689AC18AD19124547
:10359800DBE439FB12072C8A128B13AC12AD13EA49
:1035A8004D701B750B0112367A123C8E9002F21286
:1035B8002C166003121380A90B74020238F28516C8
:1035C80082851783A3A3A3A3E0F50B780B121B0D29
:1035D800E4F512F5137812121B097512EE75130231
:1035E8007812121B099002EF121B2074071218D2CE
:1035F800121B20A910850E82850F8312396F1218AD
:103608009CE9F50B70A0124029600302351CE4F513
:1036180012F5137812121B097CFF7DFF790F850EB6
:1036280082850F8312397E12189C8B13A9131230CE
:1036380084600302351C12367A12398B0235C17C3C
:10364800F17D02850E82850F8312366812047AE9AD
:1036580060030235B479000235C1850A82850B837F
:103668001232E92212367022F583123C7DFB1205D4
:103678004622123689123C7DF9EA85148285158323
:1036880022850C82850D83E02EF8A3E03F8882F521
:10369800832274E81218F674FA1218867404121841
:1036A800D21232D18C168D1774041218D2E0240568
:1036B800F50EA3E03400F50F74041218D2E02402CA
:1036C8001238FA12390F7F007E00A818A919880845
:1036D80089097808121B09850E82850F83A3A3A385
:1036E800A3E0F5088F097808121B09E50E2405F5F3
:1036F80008E4350FF5097808121B09850E82850F35
:1037080083A3A312395712189C8A0C8B0D8024129C
:10371800392AF00F12392AF00F9002EE123C60128B
:103728001B091245CEEFF81232B612189C9002EE21
:10373800E02FFFE50C450D607A8518828519831204
:103748001B20AC0CAD0D8514828515831239061229
:10375800189CE9FEE50C2404F510E4350DF511E993
:10376800704B74041218D2123930F5087808121BFD
:103778000DE4F508F5097808121B097508EE7509B6
:10378800027808121B099002EF121B207407121806
:10379800D2121B20E50A24FAF9AC0CAD0D8514826F
:1037A80085158312396F12189CE9FE603612394666
:1037B800123C8DEF70030238DD9002F2E0F5F0EF75
:1037C800849002F1F07CF17D0285148285158312C4
:1037D8003668120480E960069002F3123F407900CF
:1037E8000238F0EFF508703DE4F512F5137812127F
:1037F8001B097CFF7DFF7911851482851583123999
:103808007E12189C8B13A9139002F312308770094B
:1038180012394612398A0238F09002EEE0240490F8
:1038280002F2F080359002EEE0F89002F2E0FCE857
:103838002404FAE43400FBEA6C4B60030237C1E568
:103848000A24FAFAE50B34FFFBE50828F8E434000B
:10385800F9EA98EB9950030237C1851082851183E4
:10386800E0C0E09002F3E02FF8A3E034008882F58E
:1038780083D0E0F00F851082851183A3E0C0E012A9
:103888003917D0E0F00F74021218DC88088909781B
:1038980008121B0974021218D2121B20850E828589
:1038A8000F83A3A312393912189C8A0C8B0DEA4B8B
:1038B800700302371774021218D2E0C0E0123917E9
:1038C800D0E0F00F74021218D2A3E0C0E01239174A
:1038D800D0E002371FEE70027E0A850E82850F83C4
:1038E80012394C123C8DEEF9740612189C7F1002A6
:1038F80019C8F514A3E03400F51585148222123294
:10390800E91207147402221236708A0A8B0B2212EB
:10391800391B229002F3E02FFAA3E034008A82F5E3
:10392800832212391B74FF221245BAA3A3A3A3E072
:10393800221245D5AA0CAB0D120732740422851049
:1039480082851183124763F98516828517832212AF
:1039580045D5850E82850F831232E9120726740633
:10396800228510828511831232E912089474092283
:103978008510828511831232E91207FE7402221221
:103988003C93E8F0A3E9F079112274EA1218F6746E
:10399800FE1218868A088B098C128D13EA2405FEFC
:1039A800E43509FF123C698A0C8B0DEE2406F50EEE
:1039B800E43FF50FEA4B7003023A78E5082402F574
:1039C8000AE43509F50B8A828B83A3A3A3E0A2E559
:1039D8005022123AA28A108B11EA4B60247912AC59
:1039E8000CAD0D1236628510828511831218F4E928
:1039F800F50C707F850E82850F83E060097952800F
:103A080011750C0E806D850882850983A3A3A3A375
:103A1800E0F9E4F508F5097808121B098E828F830E
:103A2800A3A3E0F5087808121B098E828F83A3A34D
:103A3800A3121B208E828F831245D1850A82850BA3
:103A480083123DAF12189CE9F50C7011850E828522
:103A58000F83E0702C123662120486802474166973
:103A68007011750C0074181218D21245B6E4801043
:103A7800750C01124759851282851383E8F0A3E972
:103A8800F0850E82850F83E0600479008002A90C1E
:103A9800740212189C7F0E0219C885188285198332
:103AA8001232E91208882274EC1218F674F7121808
:103AB800868A0A8B0B8C108D11EA2405FEE4350BDF
:103AC800FF750C00123C698A088B09EA4B700302E7
:103AD8003C4BE50A2402F50A5002050B8A828B83C7
:103AE800A3A3A3E0A2E55025123AA28A0C8B0DEA03
:103AF8004B604F7912AC08AD09123662850C82858D
:103B08000D831218F4E9F50C6003023C4E850A8215
:103B1800850B83E0F508A3E0F509AA08FB12087CE9
:103B2800EA4B70197AFF7BFF12087CEA4B7003029C
:103B38003C418A828B83E508F0A3E509F07508000B
:103B48008008750C0E023C4E05089002EBE0F8E583
:103B580008C3984003023C41E508F50E750F007450
:103B680003780E1218738A828B83A3A3E0250EF8BC
:103B7800A3E0350F12401E70CF8E828F83123C82D5
:103B88001232D18E828F83A3A3123C821232CFEEDF
:103B98002404F508E43FF509850882F583E0888266
:103BA8008983A3A3A3A3F0A3E4F0EE2405F50EE410
:103BB8003FF50F850E82F583123C82A3A3A3A312BF
:103BC80032CF7512077513007812121B09EEFCEF3D
:103BD800FD74041218E412458C12189CE4F512784E
:103BE80012121B09850882850983E0FC7D0079177C
:103BF800850A82850B8312397E12189C7407121865
:103C0800D21233CF6038850882850983123C60124E
:103C18001B09850E82850F831245D112458C121817
:103C28009C74021218EC12366212048CE960237438
:103C3800071218D2123F408019750C098008750CBC
:103C4800118003750C011247598510828511831262
:103C58003C8DA90C74098041E0F5087509007808C5
:103C680022AC18AD198E82F583123C7522123C7D68
:103C7800FB12072C22E0FAA3E0221232E98882899B
:103C88008322123C93E8F0A3E9F022E0F8A3E0F9DC
:103C9800850E82850F8322740412189C7F0C0219EA
:103CA800C874EC1218F6123D9D751000EA2402F54E
:103CB8000CE43FF50D850C82F58312366812087CFA
:103CC8008A088B09EA4B7003023D81850A82850BBD
:103CD80083E064016003023D76AC08AD09AA0AAB33
:103CE8000B120870E9606F850882850983123067B6
:103CF800EE2406F50AE43FF50B8E828F83A3A31208
:103D08001B208E828F83A3A3A3A3121B20850A8264
:103D1800850B83121B2079188E828F831245D185DB
:103D28000C82850D83123DAF12189CE9F874166851
:103D3800700B850A82850B83E4F0A38014E9601276
:103D48008E828F83123668850E82850F83EAF0A3F0
:103D5800EBF089108018780E121B09AC08AD09EE3B
:103D6800FAEFFB120876740212189CE9F510AA08FB
:103D7800AB09120882E510700E850C82850D83123E
:103D88003668120492800974166510700375100065
:103D9800A910023CA4EAFEEBFF8C0E8D0FEA240565
:103DA800F50AE43FF50B221232E912089A7406224A
:103DB80074EA1218F67508007509007E007F007510
:103DC8000A00EC2402F510E43DF5118035EC650895
:103DD8007003ED65096003023E6D88828983A3A3A1
:103DE800E06A7003A3E06B707C88828983A3A3A335
:103DF800A312475DEE28FEEF39FFEA28FAEB39FBFC
:103E0800050A123F33503BE50AF50C750D007403A3
:103E1800780C121873851082851183123F26124080
:103E28001E601FE508450970A48C088D09888289E1
:103E38008312306588828983A3A3E02EFAA3E03F2A
:103E480080BDE50AC394025003023F21750800753E
:103E58000900EE4F600FEEFAEFFB12137A8A0E8B11
:103E68000FEA4B70057900023F23750B00807FE550
:103E78000BF50C750D007403780C121873851082FD
:103E8800851183E0250CF50CA3E0350DF50DE50C47
:103E98002406F514E4350DF51585148212402160C9
:103EA8003AE50C2404F512E4350DF513851282F574
:103EB80083121B20E50E2508FAE50F124585121816
:103EC8009C851282851383E02508F508A3E035094F
:103ED800F509851482851583123F40E50B600D7C3A
:103EE800087D007900AA0CAB0D12130E050BE50B2B
:103EF800C3950A5003023E778510828511831247C5
:103F08005D8882F583A3A3A3A3A3A3E50EF0A3E58D
:103F18000F122C1DEEF0A3EFF07901023A9D123F2B
:103F28002A22E0250CF8A3E0350D229002EBE0F8F8
:103F3800E50AC398229002F21232E9121380227421
:103F4800F01218F68A0E8B0F8C0A8D0B750D007502
:103F58000C00804A7916EE2406F508E43FF5098E30
:103F6800828F83A3A3121B208E828F83A3A3A3A374
:103F7800121B20850882850983121B20850E8285E5
:103F88000F83A3A3123DAF12189CE9F50D741669AF
:103F98007064850882850983E4F0A3F0050C90021B
:103FA800EBE0F8E50CC398505EAA0C7B008A088BFE
:103FB8000974037808121873850A82850B83A3A3F2
:103FC800124078E8FEE9FF12401F603BEA24010A2C
:103FD80050010B9002EBE06A7001EB601488828953
:103FE80083A3A3A3A3A3A3A3A312402C6003023F0C
:103FF8005C7918023F5EE960A312475974101218E1
:10400800D2124016123C8DA90D7F080219C8123C25
:104018007DF5838A8222F98882F5831245D5EC4D95
:10402800229002F2124763F9E8492274F61218F650
:104038007C0080010C900348E0F8ECC398501FEC1A
:10404800F5087509007402780812187312406DE0BB
:104058006A7003A3E06B70DCE8FAE9FB80047A007D
:104068007B000241099002E91240788882F5832298
:10407800E02508F8A3E03509F92274F21218F68A47
:10408800088B09750A0080278E828F83A3A3A3A3B8
:10409800122C1460031213807C087D007900EEFA5C
:1040A800EFFB12130E8E828F83E4F0A3F0050A1241
:1040B8003F335028E50AF50C750D007403780C128F
:1040C8001873850882850983A3A3E0250CFEA3E065
:1040D800350DFF8E82F58312402C70AC85088285E1
:1040E800098374FFF0A3F002484674F61218F6121A
:1040F80046FA70067A007B008007A3A3A3A31236B2
:10410800687F020219C874F61218F6E9FE8C828DCF
:1041180083E06402703D1246EAF508A3E0F9A808B6
:10412800740268700374296970297508027509009A
:104138007808121B09740E1218D2121B20740E1262
:1041480018D2121B20EEF91211CA740612189CE933
:10415800F98002790180AA74E81218F674FB121823
:1041680086E9851882851983F08A168B17ECFEED8F
:10417800FF7510008C82F583A3A3A3E0A2E4502A64
:10418800741D1218D2123AA88A828B83E58245835D
:10419800700302457B790AEEFCEFFDAA16AB1712F5
:1041A80018F4E9F510600302457E741F1218D2E076
:1041B800F508A3E0F50974211218D2E0F50AA3E086
:1041C800F50B74231218D2E0F50EA3E0F50F8E82DA
:1041D8008F83E064026003024527A312475D8508C8
:1041E80082850983A3858212858313EE2406F50C44
:1041F800E43FF50D888289831245DBF514E439F52F
:10420800157814121B930100002801283642070074
:104218000228024303286B420029234401294E4403
:104228000229EC43032923440429C4442745E50E05
:10423800450F6003024522850C82850D8312475D78
:10424800E8FAE98882F583E0850A82850B831245BE
:10425800E5124592121B098A828983A3E0FCA3E038
:104268000244B0E50E450F6003024522850A8285A7
:104278000B837401F01245C3850882850983F07C9D
:10428800007D008E828F83A3A3A3A3E02401FAA359
:10429800E03400FB12072CEA4B60458A828B83E0EE
:1042A8002402F8850A82850B83E028F0EA2404F8C2
:1042B800E43BF98882F583E08512828513831245F1
:1042C800EBF08A828B83124592121B098A828B83B8
:1042D800A31245D1E5082403FAE43509FB0244B5E5
:1042E800850A82850B83E02404F07C047D00790034
:1042F800AA12AB1312130E02457EE50E450F60039A
:104308000245221245C3FEA3E0FF850A82850B837E
:104318007404F0EE850882850983F0EF85128285A2
:104328001383F074031218EC1246DC70030243CDB9
:104338008A828B83A3A312306574011218DC880E5D
:10434800890F780E121B0974051218D2121B207CD3
:10435800FF7DFF120732740412189CEA4B703385F4
:104368000C82850D831245AD121B09850C82850DC3
:1043780083A3121B207C027D007AC17B9012053436
:10438800740412189CE9700A74011218D274FFF0B0
:10439800A3F08E828F83E064027034750C02750D71
:1043A80000780C121B098E828F83A31245D1E50871
:1043B8002404FAE412458512189C850A82850B8329
:1043C800E02402800974011218D2EEF0A3EFF07411
:1043D800011218D21245A3F074011218D2A3124583
:1043E8009B02451CE50E450F6003024522850C82A1
:1043F800850D831245B61245D1AA16AB171211D0F6
:10440800850A82850B837402F0850882850983EA10
:10441800F0851282851383EB02451FE50E450F6078
:10442800030245221245C3F8A3E0F9850A82850BE9
:10443800837402F0E8850882850983F0E985128291
:1044480085138302451F850C82850D8312366812F9
:1044580012F0EAF8C3950EE4950F405AEA650E4546
:104468000F700478008021851882851983E0FCE5A7
:104478000E2CFCE4350FFDC3EC9AED94005003E0DC
:104488008005E50EC8C398F8E8850A82850B83F095
:10449800F50A750B00780A121B09850C82850D83B5
:1044A800E0250EFCA3E0350FFDAA08AB0912458CE8
:1044B80012189C02457E75100702457EE50E450FD1
:1044C8007058850C82850D8312475D850A82850B9D
:1044D8008374071245E512459B1245E5A3E0851252
:1044E80082851383F0E82402FAE439FB8A82F58393
:1044F80012459BA3122AFC1245A3122C1C1245A795
:10450800F0E82405F8500109F58289831245A7A32C
:104518001245EBA3A3A3A3F0805C75100B8057741E
:104528001D1218D21246F3604A124763880CF50D23
:10453800E8450D603E74251218D2E0F51078101287
:104548001B0D780E121B09780A121B097808121B1A
:104558000974071218D2E0F9EEFCEFFDAA16AB17A2
:10456800850C82850D831218F4740712189CE9F5DE
:1045780010800375100EA91074050238F23509125F
:10458800458B22FB1212F6740222E0F50A750B0025
:10459800780A22E0850882850983221245F52212CD
:1045A80045F5A3A322E0F50E750F00780E221245FB
:1045B800BA22E0F8A3E0F583888222850C82850D73
:1045C800831245BAE0229002EF1245D522E0FCA3FF
:1045D800E0FD22123C7DF8E4C8F9EA2822F088823E
:1045E800898322F088828983A31245F522E0850811
:1045F80082850983A3A32274EE1218F674FE12189A
:10460800868A088B09ECFEEDFF890AAC18AD1912F1
:1046180046DC70030246CD8518828519831246F35D
:1046280070030246C8A3124762880EF50FE8450FCB
:1046380070030246C874141218D2E0F510A3E0F50E
:1046480011E50AF50B780B121B0D74191218D2120A
:104658001B207810121B09741B1218D21234B6AA28
:1046680008AB09850E82850F831218F47405121899
:104678009CE9F50B705274FE650A604C850C8285C6
:104688000D83E0640270411246EAFAA3E0F9EAF801
:104698007402687003742969702E851082851183ED
:1046A8001245DBF50CE439F50D780C121B09EEFC0C
:1046B800EFFDAA08AB091208B2740212189C800810
:1046C800750B0E8003750B01A90B740212189C7FE1
:1046D8000A0219C8EEFAEFFB12072C8A0C8B0DEAB6
:1046E8004B221247628882F583E0221232E9124691
:1046F800FA2212082E8A828B83E58245832274F679
:104708001218F674FE121886740C1218D212475D2D
:10471800E8851882851983F074011218D2E9F0E44B
:10472800F508F5097808121B097508027808121BA4
:104738000974041218DC880889097808121B097999
:10474800FE12089A740612189C740212189C0241F0
:10475800098E828F83124763F922A3E0F8A3E0222F
:1047680074F71218F6EAFEEBFF8908900306124563
:10477800D11211D0EA5402600BA908EEFAEFFB122D
:104788000720800279017F010219C874F21218F615
:1047980074FE121886EAFEEBFF7401696013740256
:1047A8006960030248417901120AB6E960030248C8
:1047B80041EEFAEFFB12087CEA4B6003120882A86C
:1047C80018A919880889097808121B09750802753B
:1047D80009007808121B097508BB7509907808123A
:1047E8001B097CFF7DFF7A017B00120726740612E5
:1047F800189C803B850882850983A3A3A3A3A3A350
:104808001245B61245D1EEFAEFFB1211B8E4F50CD9
:10481800F50D780C121B0974021218D2121B207C99
:10482800FF7DFFAA08AB09120732740412189C8A8C
:10483800088B09E508450970BB740212189C7F06AD
:104848000219C874F41218F68A088B09ECFEEDFFF9
:104858009015F0E0F460487A097B00121320EA4BC7
:10486800603D8A828B8374B1F0A3E41248AA122AAD
:10487800FDA3E508F0A3E5091248AAA3EEF0A3EF0B
:10488800F0740C1218D212475D8A828B83A3A3A3FB
:10489800A3A3A3A3123C8D9015F0E0F912132C02E8
:1048A8002C52F08A828B83A3A3A3A322C082C08345
:1048B8009061907404F0A37448125ECB9061807488
:1048C80040F09061BC7407F09061877469F0906162
:1048D800B67416F07900120BD67902120BDC902907
:1048E80038E493F46006E493F9120BB27905120EDA
:1048F800E8024E88C082C083E9540FF9906185E0D0
:10490800696012E5C654B84441F5C6E59E5447644B
:104918004170F8E9F053C6B8E59E544770FA024E64
:104928008874F71218F6AEA853A87E120BBEC2BA46
:10493800539AFEC289759B00C2C2120BC475A91195
:1049480075B905120BCAD2BA439A0174805E42A89F
:104958000250EBC082C083906181E4F0A3024E7FD5
:1049680075E90075910075BF00020132C082C083ED
:10497800906181E4F0A374C0F0A3E4024E81C08288
:10498800C08374F812188690037812620D700302BF
:104998004A2F900378E0544060177908AA18AB1999
:1049A800120CD8AA18AB1912091E900378E054BF4C
:1049B800F0E054806010790C7A477B05120CD8908F
:1049C8000378E0547FF0E0A2E050087900124A37FB
:1049D80054FEF0E0540260087901124A3754FDF0A1
:1049E800E0540460087900124A4254FBF0E054088D
:1049F80060087901124A4254F7F0E05410600879CF
:104A080002124A4254EFF0E0542060087903124A37
:104A18004254DFF0A3E05401600D120BE812093094
:104A2800900379E054FEF0740812189C024E881224
:104A38000BD6120924900378E022120BDC12092A03
:104A4800900378E022C082C083E9600514602A8060
:104A58004F90619A7433F0A37455F09061A0743A42
:104A6800F0900521E064017009C29190037A74679F
:104A7800802D90037A7461802690619A743FF0A328
:104A8800745AF09061A0747FF0900521E064017081
:104A980009D29190037A7471800590037A746AF050
:104AA800024E88C082C083E9600B14600D14601741
:104AB80014600C802090293C801590293D8010902E
:104AC8000521E06401700590293E800390293FE4A8
:104AD80093906186F0024E8874EC1218F674F41202
:104AE800188690901FAC18AD197404121799902964
:104AF8003C93F46003024C03907808E0C39402509E
:104B080003024BE7908FDE74041218EC7408121736
:104B1800997F00750CFF750DFF750EFF7E00EFFC89
:104B280025E0F8E433F974041218D2E58228F582F6
:104B3800E58339F583E0F512A3E0F513800F7408D7
:104B48006E605B74096E6056740A6E6051EEF5080B
:104B580075090074027808121873124C0D12173276
:104B6800A909E50AC9F5107418780812165BE5104A
:104B78004508F8C3E51298E51399400AE512C39869
:104B8800F8E513998008E8C39512F8E99513F9C375
:104B9800E8950CE9950D5006880C890D8E0E0EEEE1
:104BA800C39413409974FF650C700474FF650D601D
:104BB80024E50EF50874027808121873124C0D12C9
:104BC8001732851882851983E5822CF582E43583AE
:104BD800F583E508F00FEFC394045003024B1B75EF
:104BE80008017509007808121B0974021218EC7A7A
:104BF8004F7B0A121224740212189C740C12189C0F
:104C08007F0C0219C874482508F58274783509F5AF
:104C180083780822C082C083906186E0F890293F9B
:104C2800E49368700990293EE493906186F090615E
:104C3800AE7468F0A3746AF090624574FBF0A30444
:104C4800F053F4FD43FE029005217401F09061A039
:104C5800E0643A7004790080027901120BD6024EA2
:104C680088C082C0839004D3E06401700A9004D89D
:104C7800E06004790C80027900024E88C082C0830B
:104C880075E1F19004D6E06054146009146058147A
:104C98006050147057120BFA9004C5E0F97AC67B7D
:104CA80004120E6A90907B121750120EA090904337
:104CB800121750120E769004D7E0F9120E8279017D
:104CC800120EDC9004C3124FE3241AF582E438F57F
:104CD800837412F0A3740CF07900024E88120C0051
:104CE80080B6120C0680B1120C0C80AC791280EAE6
:104CF80074F41218F675D90D9004CCE0A2E0E433F0
:104D08001313F8124D9D484401F5D97800124E0F3F
:104D180040FB7800E8FA74CD1256FB3404124E19A1
:104D280040F275E1959004CCE0F97ACD7B04120E3F
:104D3800709016147488F0A3740B124E24124E6EE1
:104D4800124E65124FAB9004D6E064019004C37014
:104D58000B124DA712173290907F8009124DA7129F
:104D6800173290907778081216A690900F7808124C
:104D7800170C9004C3124FE3124E5C7808121741C7
:104D88009004C3124FE3124E537413F090037674D9
:104D980002F0025E239004C5E0C4333354C02212EB
:104DA8005D3EA3A3780822C082C083124F678AD9C8
:104DB8007800E8FC74C62C124E1440F67800800D7A
:104DC800E8FC74DD2CF582E4340412503AE8C39907
:104DD80040EE124F59124E0F40FB780080081256D1
:104DE800F7340412503AE8C39940F375E1959016E8
:104DF800147494F0A3740B124E24124E2E7412F0F5
:104E080090037674018072E8FA74C62AF582E43455
:104E180004F583E0F5D908E8C3940622124F947488
:104E28008EF0A3740B22124E6E124E65124FAF9085
:104E380004C3E0F8A3E0C8124E5C74FF1256EF906A
:104E480004C3E0F8A3E0C8124E53222414F582E408
:104E580038F58322240EF582E438F58322F0A37412
:104E6800A6F0A3740B22124E7222124E7622F0A3E1
:104E78007444F0A3740D22F0A3F08004A2E092AF72
:104E8800D083D082020132C082C083124ED4124D28
:104E98009D4402F5D97800124E0F40FB7800800C33
:104EA800E8FA74DD1256FB340412503AE8C399400C
:104EB800EF75E195901614124EDFF0A3124EDF1233
:104EC8004E317414F0900376740480AD9004DCE0E5
:104ED800F9740729F5D92274A0124EEC124EECF0A1
:104EE800A3740B22F0A3740BF0A374A022C082C099
:104EF80083124F6774064AF5D97800E8FC74C62C0B
:104F0800124E1440F67800800DE8FC74DD2CF58212
:104F1800E4340412503AE8C39940EE124F59124E45
:104F28000F40FB780080081256F7340412503AE814
:104F3800C39940F375E195901614749AF0A3740B15
:104F4800124F8A124E2E7415F09003767403024E97
:104F5800819004FC124ED774044AF5D978002212C5
:104F68004ED49004C5E0C4333354C0FA22F582E429
:104F780039F583E0F5D90AEAC322EE28F8E43FF9C7
:104F8800E822124F947444F0A3740D22124F982211
:104F9800124FA57444F0A3740D124FA522124E7639
:104FA800F0A322124FAF22F09016227444F0A3749B
:104FB8000D124F987444F0A3740D124E72F022C073
:104FC80082C0839004C3124FE32406F582E438F5C7
:104FD80083E4024E7F851882851983E0F8A3E0C830
:104FE8002274F71218F69003A4125E2874A628F803
:104FF800740339F9E82405FAE4391260B9A3A3A3C4
:10500800A3A3A3A3A3A31261B7A3A3A3A3A3A3A327
:10501800E024FFF8A3E034FFF98A828B83125DC194
:105028000250EB7F060219C8E8FA74272AF582E4D1
:105038003405F583E0F5D90822EAFEEBFF1252DFCA
:1050480022EAF8EE28F8E43BF9E822124F759404B6
:105058002274F71218F6EAFEEBFF9061D0E0706454
:1050680075D90E75D90375D9047A00125049248D63
:105078001250DF40F67A00125049248512505340EE
:10508800F675E1957908EE248D1250D824851250D2
:10509800D07C00ECF8C3E498FA95E0FBEE2AFAEF2E
:1050A8003BFBEA248C125FB0C0E0124F8224ACF5BF
:1050B80082E439F583D0E0F00CECC3940840D412B4
:1050C80051FA80027900801BFAE43FFB120CCC22D3
:1050D8001250D07904EE22124F75940822A2E09261
:1050E800AF79007F010219C8C082C08375D90275E3
:1050F800D90375D90575E195EA246FF582E43B1269
:10510800516AEA2471F582E43B12520D024E88740A
:10511800F61218F6EAFEEBFF900527740612518581
:10512800121B097C01790312616E12189C75D9064D
:1051380075D903780012517040FB75E1959003769C
:10514800E064087016EE246FF582E43F12516AEEAF
:105158002471F582E43FF583125DC179010253E8B9
:105168008882F583125D9822E8FA74272AF582E48A
:105178003405F583E0F5D908E8C3940522F07508ED
:105188002775090578082274F61218F6EAFEEBFF6F
:105198009061D0E0704F7801900527740BF0900370
:1051A80076E0640770177508277509057808121BDB
:1051B800097C01790312616E12189C780574012824
:1051C800F5D975D9037900800FE9FA74271256FBCF
:1051D8003405F583E0F5D909E9C39840EC75E19504
:1051E8001251FA800279000253E875E195790412A8
:1051F8000EA6EE246FF582E43FF583125D98EE2447
:1052080071F582E43FF583E8F0A3E9F079012274AF
:10521800F71218F6EAFEEBFF75D90375D90375D9AD
:105228000DEA24DF125237F5D91251F20250EBF58C
:1052380082E43FF583E0227F030219C874F512184F
:10524800F61252C76004780F8002780BEAC39812EE
:1052580054794041750A099005277409F0790812B4
:1052680052AD60147508277509057808121B0912D4
:10527800616612189C750A0D1252A18003125030F3
:10528800E8C3950A40F775E1957904120EA6125302
:10529800ED790180027900809E7401250AF5D9759F
:1052A800D903780022EE24E4FCE43FFD7A287B054C
:1052B8001252BC22120CC6850882850983E022128C
:1052C80052DBFAEE2484F8E43F8808F5098882F571
:1052D80083E022EAFEEBFF9061D0E0F87480C39887
:1052E8002274F21218F612535560047A0C80027A6E
:1052F800081254764052750A06900527740CF090EF
:105308000393E0900528F079027C947D037A297B49
:1053180005120CC679027C967D031252BC60167584
:1053280008277509057808121B097C06126168129E
:10533800189C750A0A1252A18003125030E8C395CE
:105348000A40F71251F28002790002502B1252DB08
:10535800F8EA2484F508E43FF509850882F583E036
:105368002274F61218F6125041FAEE2484F8E43F3B
:10537800F98882F583E060047C0880027C04EAC333
:105388009C12547940587A02900527EAF0EE24F6E8
:10539800F582E43F1253FB601975082775090578F3
:1053A80008121B097C027903EEFA12616E12189C2E
:1053B8007A0674012AF5D975D90378008008E8FCC3
:1053C80074272C125035E8C39A40F375E1951253AF
:1053D800ED7904120EA6EE240D1251FD800279001B
:1053E8007F020219C8EE241DF582E43FF583E4F03C
:1053F800A3F022F583E0900528F088828983E022D3
:1054080074F61218F6125045FCEA2484F8E43BF9C5
:105418008882F583E060047E0880027E04ECC39EE7
:1054280012547940447C029005277407F0EA24F767
:10543800F582E43B1253FB6015750827750905785A
:1054480008121B09790312616E12189C7C067401FC
:105458002CF5D975D90378008003125030E8C39C25
:1054680040F875E1957901800279000253E8E8C3B4
:105478009A95E0C365D0332274F71218F68908A20A
:10548800AFE433FFC2AF7E00EA246EF8E43BF98054
:10549800010E88828983E0FCEEC39C5018EEFCEA7A
:1054A8002CFCE43BFDEC246AF582E43DF583E065E1
:1054B8000870DE8010EA2CFAE43BFB12553BE50845
:1054C80012540104F0EFA2E092AF0250EBC082C088
:1054D80083A2AFE433FDC2AF125FAD14F07C00ECE1
:1054E800F8EA12504C246BF582E439F583E0C0E009
:1054F800E8246AF582E439F583D0E0F00CECC39433
:105508000340DCEA246DF582E43BF58374FF125511
:1055180045ED024E84C082C083A2AFE433F8C2AF27
:1055280012553BE9125545125FAD70037401F0E85E
:10553800024E84EA246AF582E43BF58322F0EA24E9
:1055480069F582E43BF583E4F02274F01218F68CD6
:10555800828D83A3A3A3A3E0541FF0EA2436125F2D
:105568004E8882F583E4F0750C00E50CF50AEC250D
:105578000AF8E43D8808F5098882F583E0C0E0EA86
:10558800250AF8E43BF9E8245DF582E439F583D08F
:10559800E0F0750A00850882850983E0F50E750F2D
:1055A80000E50A780E121854E50EA2E05027E50C23
:1055B80033333354F8250AC0E08E828F83E0F8EA4B
:1055C80012504C2438F582E439F583D0E0F08E820D
:1055D8008F83E004F0050AE50AC3940840B7050C78
:1055E800E50CC3940540837F080219C8C082C083B4
:1055F8009003A2E0640170030256E778009003A8C4
:10560800E060030256E7125EC9A3F090040804F0B4
:1056180090040DF09003AB1256EE9003B504F09091
:1056280003DBE4F09003BE125700A3F0900426F0C9
:1056380090041AF0900429F090040E7480125ECB46
:10564800900414F090049212571090049BF0900468
:105658002AF090047A125710A3F0A3F0900486F071
:10566800900488F0900484F090049E1257109004DF
:10567800B1F09004AB12570074FF9004107904F055
:10568800A3D9FCE8FA74B61256FB3404F583E0C0DB
:10569800E074031256FB3404F583D0E0F008E8C345
:1056A800940540DF7800E8FA748A1256FB3403F553
:1056B80083E0C0E0748A1256FB3404F583D0E0F02E
:1056C80008E8C3940840DF9003A2E004F064017086
:1056D800089003AAE09003A4F07AA67B0380047ADA
:1056E800007B00024E88E4F0A3F0A3F0A3F022E8C8
:1056F800FA74FD2AF582E42212570422F0A3F0A3DB
:10570800F0A3F0A3F0A3F022125704A3F0A3F02211
:10571800C082C083EA2403125FB06008E4F09003FB
:10572800A3E014F09003A2E014F070069003A474B0
:10573800FFF08A828B83A3A3E4F09004BBE0700D92
:105748009003A3E0640170057900120E88024E8868
:10575800C082C0839003A9E4F09003A8F09003A24C
:10576800F0A3F0A374FFF075E1F1024E8874E8121B
:1057780018F674E4121886851882851983125DCB91
:10578800F583888212516C8882F583A3A312175C73
:1057980074121218D212176888828983A3A3A3A34C
:1057A800A3A312516C74161218D2125DD6240B12D0
:1057B80060A974101218D2125DD6240D1260A97453
:1057C8000E1218D2125DD624071260A9740412189A
:1057D800D2125DC174341218D2121B1C741612181E
:1057E800D212175012266E740412189CE960030234
:1057F8005CCC125D75121B1C74381218D21217502B
:105808001226CA740412189C8A088B098C0A8D0BFC
:10581800851882851983E024051260A9740A121874
:10582800D2125DC1740A1218D2125DB6851882852B
:105838001983E024741260A974081218D2125DC189
:1058480074081218D2125D5AF8851882851983E0F7
:10585800242EFCA3E03400FD74021218D2ECF0A34D
:10586800EDF0E87003025B7E851882851983E0F904
:10587800A3E0C92475F582E439F583E0C39AF50CF1
:10588800A3E09BF50D851882851983E0240EFAA301
:10589800E03401FB740C1218D2EAF0A3EBF07402A6
:1058A800687004740C800274021218D2125D6B8541
:1058B8000C14850D15751600751700E4F512F5130F
:1058C8007814791012156C74181218D278141217EB
:1058D80041125D75781012173274181218D27810A8
:1058E8001216A67810121B0574381218D212175007
:1058F80012266E740412189CE97003025B50851816
:1059080082851983E0247A1260A974061218D212CB
:105918005DC174061218D2125D6BE4F512F51374AA
:10592800181218D278081216E0780879101216930F
:1059380090905778081216A68510148511158512AF
:1059480016851317780879141215EC85081485093B
:1059580015850A16850B177814791012156CE50C45
:105968002508FEE50D3509FF740A1218D2125D6389
:105978003FF974041218D2125DBE74181218D2C0FE
:1059880082C083124FDD2478F582E438F583E0F590
:105998000CA3E0F50DE4F50EF50FD083D082780C5A
:1059A8001216A6780C791412169374081218D212CB
:1059B8005D5A64016003025BC0851882851983E023
:1059C8002477F510A3E03400F511AC10FD8518829A
:1059D800851983125F5D120C9C851882851983E0F6
:1059E800247CF508A3E03400F509850882F58312C4
:1059F8005F5D124FDD2420F582E438F583125DCB1C
:105A0800C8241CF582E438F583E4125DC7F8A3E0E6
:105A1800C8241DF582E438F583E4F0A3F074041279
:105A280018D2125DB6740E1218D2125D5A2AFAA351
:105A3800E03BFB74101218D2125D3AEAF0A3EB12A5
:105A48005DC7247EF516A3E03400F517851682F5A8
:105A580083E0F514A3E0F51574061218D2125D5A06
:105A6800FCA3E0FD851882851983E02430F512A394
:105A7800E03400F513851882851983E02432F50A8D
:105A8800A3E03400F50B74021218D2125D5A6C7040
:105A980003A3E06D701D850A82850B83E065147091
:105AA80004A3E06515700C125D2AE0687003A3E09A
:105AB800696032740478141218647814121B09850A
:105AC8000882850983121B20EDC313FDEC13FC74B7
:105AD800041218D2125D4BA3A3E0FA7B00120984CA
:105AE800740412189C74021218D2125DB6740C1247
:105AF80018D2125D51851082851183E0C0E0124FE3
:105B0800DD242BF582E438F583D0E0F07406121812
:105B1800D2125DB674021218D2125D51125D2A12A9
:105B28005DC185168285178312516C850A82850BA3
